:020000040000fa
:080000000001040000000000f3
:020000040000fa
:0400080006020000ec
:020000040000fa
:04000c0006020000e8
:020000040000fa
:0400100006020000e4
:020000040000fa
:0400140006020000e0
:020000040000fa
:0400180006020000dc
:020000040000fa
:04001c0006020000d8
:020000040000fa
:0400200006020000d4
:020000040000fa
:0400240006020000d0
:020000040000fa
:0400280006020000cc
:020000040000fa
:04002c0006020000c8
:020000040000fa
:0400300006020000c4
:020000040000fa
:0400340006020000c0
:020000040000fa
:0400380006020000bc
:020000040000fa
:04003c0006020000b8
:020000040000fa
:04004000c8010000f3
:020000040000fa
:0400440006020000b0
:020000040000fa
:0400480006020000ac
:020000040000fa
:04004c0006020000a8
:020000040000fa
:0400500006020000a4
:020000040000fa
:0400540006020000a0
:020000040000fa
:04005800060200009c
:020000040000fa
:04005c000602000098
:020000040000fa
:040060000602000094
:020000040000fa
:040064000602000090
:020000040000fa
:04006800060200008c
:020000040000fa
:04006c000602000088
:020000040000fa
:040070000602000084
:020000040000fa
:040074000602000080
:020000040000fa
:04007800060200007c
:020000040000fa
:04007c000602000078
:020000040000fa
:040080000602000074
:020000040000fa
:040084000602000070
:020000040000fa
:04008800060200006c
:020000040000fa
:04008c000602000068
:020000040000fa
:040090000602000064
:020000040000fa
:040094000602000060
:020000040000fa
:04009800060200005c
:020000040000fa
:04009c000602000058
:020000040000fa
:0400a0000602000054
:020000040000fa
:0400a4000602000050
:020000040000fa
:0400a800060200004c
:020000040000fa
:0400ac000602000048
:020000040000fa
:0400b0000602000044
:020000040000fa
:0400b4000602000040
:020000040000fa
:0400b800060200003c
:020000040000fa
:0400bc000602000038
:020000040000fa
:0400c0000602000034
:020000040000fa
:0400c4000602000030
:020000040000fa
:0400c800060200002c
:020000040000fa
:0400cc000602000028
:020000040000fa
:0400d0000602000024
:020000040000fa
:0400d4000602000020
:020000040000fa
:0400d800060200001c
:020000040000fa
:0401080006020000eb
:020000040000fa
:04010c0006020000e7
:020000040000fa
:0401100006020000e3
:020000040000fa
:0401140006020000df
:020000040000fa
:0401180006020000db
:020000040000fa
:04011c0006020000d7
:020000040000fa
:0401200006020000d3
:020000040000fa
:0401240006020000cf
:020000040000fa
:0401280006020000cb
:020000040000fa
:04012c0006020000c7
:020000040000fa
:0401300006020000c3
:020000040000fa
:0401340006020000bf
:020000040000fa
:0401380006020000bb
:020000040000fa
:04013c0006020000b7
:020000040000fa
:04014000c8010000f2
:020000040000fa
:0401440006020000af
:020000040000fa
:0401480006020000ab
:020000040000fa
:04014c0006020000a7
:020000040000fa
:0401500006020000a3
:020000040000fa
:04015400060200009f
:020000040000fa
:04015800060200009b
:020000040000fa
:04015c000602000097
:020000040000fa
:040160000602000093
:020000040000fa
:04016400060200008f
:020000040000fa
:04016800060200008b
:020000040000fa
:04016c000602000087
:020000040000fa
:040170000602000083
:020000040000fa
:04017400060200007f
:020000040000fa
:04017800060200007b
:020000040000fa
:04017c000602000077
:020000040000fa
:040180000602000073
:020000040000fa
:04018400060200006f
:020000040000fa
:04018800060200006b
:020000040000fa
:04018c000602000067
:020000040000fa
:040190000602000063
:020000040000fa
:04019400060200005f
:020000040000fa
:04019800060200005b
:020000040000fa
:04019c000602000057
:020000040000fa
:0401a0000602000053
:020000040000fa
:0401a400060200004f
:020000040000fa
:0401a800060200004b
:020000040000fa
:0401ac000602000047
:020000040000fa
:0401b0000602000043
:020000040000fa
:0401b400060200003f
:020000040000fa
:0401b800060200003b
:020000040000fa
:0401bc000602000037
:020000040000fa
:0401c0000602000033
:020000040000fa
:0401c400060200002f
:020000040000fa
:0401c800060200002b
:020000040000fa
:0401cc000602000027
:020000040000fa
:0401d0000602000023
:020000040000fa
:0401d400060200001f
:020000040000fa
:0401d800060200001b
:020000040000fa
:100200002f8020000eff20000e018800000000005b
:10021000000020000000e000020032000001200089
:100220002002880014000700c40007000000e0005e
:1002300003003a00403a200001002000020037008d
:100240000000200001002000810f7000010032003a
:1002500014000700000020000000e000020032004f
:1002600000000200000000009203020000000000f5
:100270000040da000000fe004440a900a000200079
:100280000000e0000300320000002000a001880010
:100290004440a800000006008a1f78008b1f7800e9
:1002a0000000060091018800800478000000eb0047
:1002b0001a003700e284440032a0b4009905ba0065
:1002c000e284440032a0b4009906ba00e2844400fb
:1002d00032a0b4000006eb00476fde00fd07b2005d
:1002e000636ce10003003a00ebff07000000eb0045
:1002f0000a003700606ce10004003a00005deb008a
:100300008b05e900fdff3e00040037006168e10055
:10031000010032000086eb000b00070019c7ba008d
:100320001905ba000e04e00003003a000a00e000dc
:10033000e0ff3a0000000600fe07b2009e018800c0
:100340008a047800f5ff3700395dba008b05e900b3
:100350000c003200295dba008b05e900080032006c
:100360000c00e00003003a00e284440032a0b40034
:10037000f5ff370019ddba008b05e900faff3a00f6
:100380008904e800e184440032a0b40000000600c3
:100390003600f800809fbe00829fbe00849fbe0092
:1003a000869fbe003400f80000002000a0018800f5
:1003b0000000fa000000eb005e00070084c0a90006
:1003c00000c8bf000040e80000e8b70000c8bf0058
:1003d000e24f5000010036000068ef0001c8bf0086
:1003e0000004e000010032000168ef000080fa0024
:1003f0003400f9004f03be004f02be004f01be00a3
:100400004f00be003600f900004006000040da0050
:100410000000fe000602ab00feff3a000642ab0001
:10042000fcff3a000662ab00faff3a000682ab001e
:10043000f8ff3a0009c2ab00f6ff3a0000000600e0
:10044000881f780000047800060037000d000700c0
:10045000e14f4000080032000802ab00feff3a0006
:10046000ecff0700384078000004e000f7ff3a0096
:100470000000eb0001003700d0ff2f004f04780090
:10048000000006008040780000c0eb008180fb0087
:100490001110880008e2ab0007003a0009c2ab0067
:1004a000feff3a00dbff07000040eb000802e2001d
:1004b00001003d00e0cfb3000000060021108800dd
:1004c00030108800000006000602a80000000600a8
:1004d0000642a8000000060084c0a900e7006000f2
:1004e000f28f2f00c808dd00b30480000301610013
:1004f00068006000028170004300de00b2048800e2
:1005000061006000f1fb2f004600dd006204800006
:100510008280600081007000610488000000060095
:100520000621ef0061088800800888001061a9009a
:1005300000000600300888000000060000000500ea
:020000040000fa
:100540004d490000435200004f430000484900005d
:040550005000000057
:020000040000fa
:100554000c00fa00e2004700022a28000900090002
:10056400b25878000e8fe800a9ff0700d5ff0700f6
:100574000000000030108000610060000000e00016
:10058400fcff3a00e0c0b300bdff0700000000001c
:1005940040108000610060000000e000fcff3a00b1
:1005a400000000004110800000002800008060006e
:1005b4000000e000fbff3a001e0078009fff0700e8
:1005c400c2ff0700000000003010800064006000db
:1005d4000000e000fcff3a000080fa000000060082
:1005e4000000fa000080fa00000006000000fa0093
:1005f4000080fa00000006000200fa0050f92d0005
:10060400000f78000080eb00b2ff070001712200a8
:100614001e007800c1ff07000080fa0000000600f9
:100624000000fa000300370000000000010037005a
:100634000000000001c8bf000004e000faff3a0017
:1006440000c8bf000080fb00e10f5000080032002a
:10065400e20f50000a0032000000e000f4ff3a000c
:10066400bbff070010c0b30001e8b7000800370063
:10067400dbff070010c0b30001e8b7000400370037
:10068400daff070010c0b30001e8b7000000000063
:10069400e8ff37000600fa00100798004147980069
:1006a40000c0eb00004f7800ce409000c0c4b300ff
:1006b40080cf500004003a009e009000f00f20000c
:1006c4000080600010079800ce40900080c4b30002
:1006d40080cf500003003a001e0090004800de0066
:1006e400100798001e009000004f78001e4078000c
:1006f4000080fa00000006000400fa0000222c002a
:10070400000f780010002000100798009e00900051
:100714001e00780068ff07000080fa000000060051
:100724000000fa0003000700b3ff0700bcff070046
:10073400ffff37000000fa00efff07000080fa0017
:0407440000000600ab
:020000040000fa
:100748000008000002000000000000000000000097
:020000040000fa
:0200000401f009
:04000000f5bf000048
:020000040000fa
:0200000401f009
:04000400c07f0000b9
:020000040000fa
:0200000401f009
:040008005fff000096
:020000040000fa
:0200000401f009
:04001400ffff0000ea
:020000040000fa
:0200000401f009
:04001800ffff0000e6
:00000001FF
